tcpdump: data link type LINUX_SLL2
tcpdump: verbose output suppressed, use -v[v]... for full protocol decode
listening on any, link-type LINUX_SLL2 (Linux cooked v2), snapshot length 262144 bytes
14:14:52.314526 lo    In  IP localhost.6002 > localhost.6003: UDP, length 21
	0x0000:  4500 0031 e46d 4000 4011 584c 7f00 0001  E..1.m@.@.XL....
	0x0010:  7f00 0001 1772 1773 001d fe30 4865 6c6c  .....r.s...0Hell
	0x0020:  6f20 3630 3033 2c20 6672 6f6d 2036 3030  o.6003,.from.600
	0x0030:  32                                       2

1 packet captured
2 packets received by filter
0 packets dropped by kernel
